[2026-02-15 04:11:17] [INFO]: [Create Partition] Request for: Sukuk_Asset_3 
[2026-02-15 04:11:17] [INFO]: [Create Partition] Tx Sent: 0xe483bda0947592daa19bbe29455e1d00cfdc14d7445155ea88a85a75dba3e813 
[2026-02-15 04:11:17] [INFO]: [Create Partition] Confirmed: Sukuk_Asset_3 
[2026-02-15 04:11:17] [INFO]: [Issue Tokens] Partition: Sukuk_Asset_3, To: 0x70997970C51812dc3A010C7d01b50e0d17dc79C8, Amount: 10000 
[2026-02-15 04:11:17] [ERROR]: [Issue Tokens] Failed: execution reverted: "Not whitelisted" (action="estimateGas", data="0x08c379a00000000000000000000000000000000000000000000000000000000000000020000000000000000000000000000000000000000000000000000000000000000f4e6f742077686974656c69737465640000000000000000000000000000000000", reason="Not whitelisted", transaction={ "data": "0x35d680185070a207c511b22c3dcc5d67bd44b81e7ebdfb97f83d8f483a51110f26834f6b00000000000000000000000070997970c51812dc3a010c7d01b50e0d17dc79c800000000000000000000000000000000000000000000021e19e0c9bab2400000", "from": "0xf39Fd6e51aad88F6F4ce6aB8827279cffFb92266", "to": "0x5FbDB2315678afecb367f032d93F642f64180aa3" }, invocation=null, revert={ "args": [ "Not whitelisted" ], "name": "Error", "signature": "Error(string)" }, code=CALL_EXCEPTION, version=6.16.0) 
[2026-02-15 04:23:26] [INFO]: [Create Partition] Request for: Sukuk_Asset_3 
[2026-02-15 04:23:27] [ERROR]: [Create Partition] Failed: execution reverted: "Partition already exists" (action="estimateGas", data="0x08c379a000000000000000000000000000000000000000000000000000000000000000200000000000000000000000000000000000000000000000000000000000000018506172746974696f6e20616c7265616479206578697374730000000000000000", reason="Partition already exists", transaction={ "data": "0xfe3c70f40000000000000000000000000000000000000000000000000000000000000020000000000000000000000000000000000000000000000000000000000000000d53756b756b5f41737365745f3300000000000000000000000000000000000000", "from": "0xf39Fd6e51aad88F6F4ce6aB8827279cffFb92266", "to": "0x5FbDB2315678afecb367f032d93F642f64180aa3" }, invocation=null, revert={ "args": [ "Partition already exists" ], "name": "Error", "signature": "Error(string)" }, code=CALL_EXCEPTION, version=6.16.0) 
[2026-02-15 04:23:27] [INFO]: [Issue Tokens] Partition: Sukuk_Asset_3, To: 0x70997970C51812dc3A010C7d01b50e0d17dc79C8, Amount: 10000 
[2026-02-15 04:23:27] [ERROR]: [Issue Tokens] Failed: execution reverted: "Not whitelisted" (action="estimateGas", data="0x08c379a00000000000000000000000000000000000000000000000000000000000000020000000000000000000000000000000000000000000000000000000000000000f4e6f742077686974656c69737465640000000000000000000000000000000000", reason="Not whitelisted", transaction={ "data": "0x35d680185070a207c511b22c3dcc5d67bd44b81e7ebdfb97f83d8f483a51110f26834f6b00000000000000000000000070997970c51812dc3a010c7d01b50e0d17dc79c800000000000000000000000000000000000000000000021e19e0c9bab2400000", "from": "0xf39Fd6e51aad88F6F4ce6aB8827279cffFb92266", "to": "0x5FbDB2315678afecb367f032d93F642f64180aa3" }, invocation=null, revert={ "args": [ "Not whitelisted" ], "name": "Error", "signature": "Error(string)" }, code=CALL_EXCEPTION, version=6.16.0) 
[2026-02-15 04:31:29] [INFO]: [Whitelist] Adding: 0x70997970C51812dc3A010C7d01b50e0d17dc79C8 
[2026-02-15 04:31:30] [INFO]: [Whitelist] Tx Sent: 0xfa9dabda1014167b16baa52642c9802e13ff3dafceb0558ec83c82b161d56e89 
[2026-02-15 04:31:30] [INFO]: [Whitelist] Confirmed. 
[2026-02-15 04:32:07] [INFO]: [Create Partition] Request for: Sukuk_Asset_3 
[2026-02-15 04:32:07] [ERROR]: [Create Partition] Failed: execution reverted: "Partition already exists" (action="estimateGas", data="0x08c379a000000000000000000000000000000000000000000000000000000000000000200000000000000000000000000000000000000000000000000000000000000018506172746974696f6e20616c7265616479206578697374730000000000000000", reason="Partition already exists", transaction={ "data": "0xfe3c70f40000000000000000000000000000000000000000000000000000000000000020000000000000000000000000000000000000000000000000000000000000000d53756b756b5f41737365745f3300000000000000000000000000000000000000", "from": "0xf39Fd6e51aad88F6F4ce6aB8827279cffFb92266", "to": "0x5FbDB2315678afecb367f032d93F642f64180aa3" }, invocation=null, revert={ "args": [ "Partition already exists" ], "name": "Error", "signature": "Error(string)" }, code=CALL_EXCEPTION, version=6.16.0) 
[2026-02-15 04:32:07] [INFO]: [Issue Tokens] Partition: Sukuk_Asset_3, To: 0x70997970C51812dc3A010C7d01b50e0d17dc79C8, Amount: 10000 
[2026-02-15 04:32:07] [INFO]: [Issue Tokens] Tx Sent: 0x2cfc0fcf971f0671004c2ee7237d5ede86656f5dd4524481686d47372a610a75 
[2026-02-15 04:32:07] [INFO]: [Issue Tokens] Confirmed. 
[2026-02-15 04:46:48] [INFO]: [Whitelist] Adding: 0x3C44CdDdB6a900fa2b585dd299e03d12FA4293BC 
[2026-02-15 04:46:48] [INFO]: [Whitelist] Tx Sent: 0xb778c4f224362e02d2785beee6bd2e9da8b8f00d54a12c0576085ef5d113a6dd 
[2026-02-15 04:46:48] [INFO]: [Whitelist] Confirmed. 
[2026-02-15 05:05:55] [INFO]: [Transfer] 3 from 0x70997970C51812dc3A010C7d01b50e0d17dc79C8 to 0x3C44CdDdB6a900fa2b585dd299e03d12FA4293BC (Partition: Sukuk_Asset_3) 
[2026-02-15 05:05:56] [INFO]: [Transfer] Tx Sent: 0x7b9030db22764764359c25bbbe3b4a91a35e0de5b2102805dee7edc5d88aaf10 
[2026-02-15 05:05:56] [INFO]: [Transfer] Confirmed. 
[2026-02-15 05:38:25] [INFO]: [Whitelist] Adding: 0x90F79bf6EB2c4f870365E785982E1f101E93b906 
[2026-02-15 05:38:26] [INFO]: [Whitelist] Tx Sent: 0x867b3132d2b2697ba4087b272ac1daa91f62697837c9dcbc94e2888724ecfd99 
[2026-02-15 05:38:26] [INFO]: [Whitelist] Confirmed. 
[2026-02-15 05:39:21] [INFO]: [Transfer] 40 from 0x70997970C51812dc3A010C7d01b50e0d17dc79C8 to 0x90F79bf6EB2c4f870365E785982E1f101E93b906 (Partition: Sukuk_Asset_3) 
[2026-02-15 05:39:21] [INFO]: [Transfer] Tx Sent: 0x6bbdbe6725cbcdf2c9424791068a8feee1324b82aa4599aafc51036bc4b8b2bc 
[2026-02-15 05:39:21] [INFO]: [Transfer] Confirmed. 
[2026-02-15 06:00:24] [INFO]: [Create Partition] Request for: Sukuk_Asset_4 
[2026-02-15 06:00:25] [INFO]: [Create Partition] Tx Sent: 0x87767297576022ad09975c3389fc7a4590794ce07241c72a283ffa8e6dc61fda 
[2026-02-15 06:00:25] [INFO]: [Create Partition] Confirmed: Sukuk_Asset_4 
[2026-02-15 06:00:25] [INFO]: [Issue Tokens] Partition: Sukuk_Asset_4, To: 0x70997970C51812dc3A010C7d01b50e0d17dc79C8, Amount: 303000 
[2026-02-15 06:00:25] [ERROR]: [Issue Tokens] Failed: nonce has already been used (transaction="0x02f8d2827a6908843b9aca0084656db33c83012adc945fbdb2315678afecb367f032d93f642f64180aa380b86435d68018bf6a4259b8491899233642d13f91a3087a35eecbec03362249e89c4af105bdbd00000000000000000000000070997970c51812dc3a010c7d01b50e0d17dc79c8000000000000000000000000000000000000000000004029a9b4ad327f600000c001a0bf8f106ca4173d27c7591824792af6ab7ce59e76e2162159d832b2b5ca8be49fa01d179b0997b4157858220826333a66752cd9dc96692e694550e42f2f56cda0c8", info={ "error": { "code": -32000, "data": { "data": null, "message": "Nonce too low. Expected nonce to be 9 but got 8. Note that transactions can't be queued when automining." }, "message": "Nonce too low. Expected nonce to be 9 but got 8. Note that transactions can't be queued when automining." } }, code=NONCE_EXPIRED, version=6.16.0) 
[2026-02-15 06:03:04] [INFO]: [Create Partition] Request for: Sukuk_Asset_4 
[2026-02-15 06:03:04] [ERROR]: [Create Partition] Failed: execution reverted: "Partition already exists" (action="estimateGas", data="0x08c379a000000000000000000000000000000000000000000000000000000000000000200000000000000000000000000000000000000000000000000000000000000018506172746974696f6e20616c7265616479206578697374730000000000000000", reason="Partition already exists", transaction={ "data": "0xfe3c70f40000000000000000000000000000000000000000000000000000000000000020000000000000000000000000000000000000000000000000000000000000000d53756b756b5f41737365745f3400000000000000000000000000000000000000", "from": "0xf39Fd6e51aad88F6F4ce6aB8827279cffFb92266", "to": "0x5FbDB2315678afecb367f032d93F642f64180aa3" }, invocation=null, revert={ "args": [ "Partition already exists" ], "name": "Error", "signature": "Error(string)" }, code=CALL_EXCEPTION, version=6.16.0) 
[2026-02-15 06:03:04] [INFO]: [Issue Tokens] Partition: Sukuk_Asset_4, To: 0x70997970C51812dc3A010C7d01b50e0d17dc79C8, Amount: 303000 
[2026-02-15 06:03:04] [INFO]: [Issue Tokens] Tx Sent: 0x7283bf17b69eeefbab5911e1f7a99bbb5a08374b0f70322f57e40eedc7bdd5d0 
[2026-02-15 06:03:04] [INFO]: [Issue Tokens] Confirmed. 
[2026-02-15 06:04:56] [INFO]: [Transfer] 7 from 0x70997970C51812dc3A010C7d01b50e0d17dc79C8 to 0x90F79bf6EB2c4f870365E785982E1f101E93b906 (Partition: Sukuk_Asset_3) 
[2026-02-15 06:04:56] [INFO]: [Transfer] Tx Sent: 0x3330df75fbff32241b5640ae4d77d33f9adad625f27294180b63146ba857e357 
[2026-02-15 06:04:56] [INFO]: [Transfer] Confirmed. 
