[2026-02-15 17:09:59] [INFO]: [Sync] Checking partition: Sukuk_Asset_1 
[2026-02-15 17:09:59] [INFO]: [Create Partition] Request for: Sukuk_Asset_1 
[2026-02-15 17:10:00] [INFO]: [Create Partition] Tx Sent: 0x1ba66a2f555cb29a82fc65206ac869a578bea0ac7fa9fa3499eca2a647b05b39 
[2026-02-15 17:10:00] [INFO]: [Create Partition] Confirmed: Sukuk_Asset_1 
[2026-02-15 17:10:00] [INFO]: [Sync] Partition Sukuk_Asset_1 created. 
[2026-02-15 17:10:00] [INFO]: [Sync] Owner balance is 0. Re-issuing 132100 tokens. 
[2026-02-15 17:10:00] [INFO]: [Whitelist] Adding: 0x70997970C51812dc3A010C7d01b50e0d17dc79C8 
[2026-02-15 17:10:00] [INFO]: [Whitelist] Tx Sent: 0xfa9dabda1014167b16baa52642c9802e13ff3dafceb0558ec83c82b161d56e89 
[2026-02-15 17:10:00] [INFO]: [Whitelist] Confirmed. 
[2026-02-15 17:10:00] [INFO]: [Issue Tokens] Partition: Sukuk_Asset_1, To: 0x70997970C51812dc3A010C7d01b50e0d17dc79C8, Amount: 132100 
[2026-02-15 17:10:00] [ERROR]: [Issue Tokens] Failed: nonce has already been used (transaction="0x02f8d2827a6902843b9aca00849872a07683012adc945fbdb2315678afecb367f032d93f642f64180aa380b86435d6801834d40202f6506d27aa39c29fca78e0e5b59e9029ca2ac5ac507cb4c5859c668000000000000000000000000070997970c51812dc3a010c7d01b50e0d17dc79c8000000000000000000000000000000000000000000001bf927c4f8342d900000c001a0f1023785c5969f67e1f64629f7e8f01fc7b4a134cb74362c6f387aac89a3ddd1a07f14d0d98bee0a1d2c2bdb4d6c9695909cb5ce8302a8099b86d84fcf732a0546", info={ "error": { "code": -32000, "data": { "data": null, "message": "Nonce too low. Expected nonce to be 3 but got 2. Note that transactions can't be queued when automining." }, "message": "Nonce too low. Expected nonce to be 3 but got 2. Note that transactions can't be queued when automining." } }, code=NONCE_EXPIRED, version=6.16.0) 
[2026-02-15 17:10:00] [ERROR]: [Sync] Failed: nonce has already been used (transaction="0x02f8d2827a6902843b9aca00849872a07683012adc945fbdb2315678afecb367f032d93f642f64180aa380b86435d6801834d40202f6506d27aa39c29fca78e0e5b59e9029ca2ac5ac507cb4c5859c668000000000000000000000000070997970c51812dc3a010c7d01b50e0d17dc79c8000000000000000000000000000000000000000000001bf927c4f8342d900000c001a0f1023785c5969f67e1f64629f7e8f01fc7b4a134cb74362c6f387aac89a3ddd1a07f14d0d98bee0a1d2c2bdb4d6c9695909cb5ce8302a8099b86d84fcf732a0546", info={ "error": { "code": -32000, "data": { "data": null, "message": "Nonce too low. Expected nonce to be 3 but got 2. Note that transactions can't be queued when automining." }, "message": "Nonce too low. Expected nonce to be 3 but got 2. Note that transactions can't be queued when automining." } }, code=NONCE_EXPIRED, version=6.16.0) 
[2026-02-15 17:10:01] [INFO]: [Sync] Checking partition: Sukuk_Asset_4 
[2026-02-15 17:10:01] [INFO]: [Create Partition] Request for: Sukuk_Asset_4 
[2026-02-15 17:10:01] [INFO]: [Create Partition] Tx Sent: 0x3b74df986be6d6964af8eb017bd04846d69f2369c2c0cb33a45b19383fa43790 
[2026-02-15 17:10:01] [INFO]: [Create Partition] Confirmed: Sukuk_Asset_4 
[2026-02-15 17:10:01] [INFO]: [Sync] Partition Sukuk_Asset_4 created. 
[2026-02-15 17:10:01] [INFO]: [Sync] Owner balance is 0. Re-issuing 303000 tokens. 
[2026-02-15 17:10:01] [INFO]: [Whitelist] Adding: 0x70997970C51812dc3A010C7d01b50e0d17dc79C8 
[2026-02-15 17:10:01] [ERROR]: [Whitelist] Failed: nonce has already been used (transaction="0x02f890827a6903843b9aca00848ceec5b082708a945fbdb2315678afecb367f032d93f642f64180aa380a4e43252d700000000000000000000000070997970c51812dc3a010c7d01b50e0d17dc79c8c001a0f1562a2e883b1b1f1ea0219a4498f7a096a20fe3fadc5ade13aa9e233038dae1a022c1d3b901df932b781ee4cb2f00dc6d0aa3d1d8a5e38121016f5fa471070ba6", info={ "error": { "code": -32000, "data": { "data": null, "message": "Nonce too low. Expected nonce to be 4 but got 3. Note that transactions can't be queued when automining." }, "message": "Nonce too low. Expected nonce to be 4 but got 3. Note that transactions can't be queued when automining." } }, code=NONCE_EXPIRED, version=6.16.0) 
[2026-02-15 17:10:01] [INFO]: [Sync] Whitelist: nonce has already been used (transaction="0x02f890827a6903843b9aca00848ceec5b082708a945fbdb2315678afecb367f032d93f642f64180aa380a4e43252d700000000000000000000000070997970c51812dc3a010c7d01b50e0d17dc79c8c001a0f1562a2e883b1b1f1ea0219a4498f7a096a20fe3fadc5ade13aa9e233038dae1a022c1d3b901df932b781ee4cb2f00dc6d0aa3d1d8a5e38121016f5fa471070ba6", info={ "error": { "code": -32000, "data": { "data": null, "message": "Nonce too low. Expected nonce to be 4 but got 3. Note that transactions can't be queued when automining." }, "message": "Nonce too low. Expected nonce to be 4 but got 3. Note that transactions can't be queued when automining." } }, code=NONCE_EXPIRED, version=6.16.0) 
[2026-02-15 17:10:01] [INFO]: [Issue Tokens] Partition: Sukuk_Asset_4, To: 0x70997970C51812dc3A010C7d01b50e0d17dc79C8, Amount: 303000 
[2026-02-15 17:10:02] [INFO]: [Issue Tokens] Tx Sent: 0x9350afefb9281bc0bae682ff145251c8e2728e5ec02283639620de11afa7f84c 
[2026-02-15 17:10:02] [INFO]: [Issue Tokens] Confirmed. 
[2026-02-15 17:10:02] [INFO]: [Sync] Checking partition: Sukuk_Asset_3 
[2026-02-15 17:10:02] [INFO]: [Create Partition] Request for: Sukuk_Asset_3 
[2026-02-15 17:10:02] [INFO]: [Create Partition] Tx Sent: 0x1e1d97c4e54c31bcec19cfae46d94c6ed06af1f3198eca948db4bc2e03b52e52 
[2026-02-15 17:10:03] [INFO]: [Create Partition] Confirmed: Sukuk_Asset_3 
[2026-02-15 17:10:03] [INFO]: [Sync] Partition Sukuk_Asset_3 created. 
[2026-02-15 17:10:03] [INFO]: [Sync] Owner balance is 0. Re-issuing 10000 tokens. 
[2026-02-15 17:10:03] [INFO]: [Whitelist] Adding: 0x70997970C51812dc3A010C7d01b50e0d17dc79C8 
[2026-02-15 17:10:03] [ERROR]: [Whitelist] Failed: nonce has already been used (transaction="0x02f890827a6905843b9aca008479f545dc82708a945fbdb2315678afecb367f032d93f642f64180aa380a4e43252d700000000000000000000000070997970c51812dc3a010c7d01b50e0d17dc79c8c080a0e2d23e2dd1fa0b427e40984bae13697ab83ce3a86b290b5844157b50a17afbdfa05c6a92a0b5e467a6a12b59f934025af0c5f3b20db6ef435a7ef1575f6d7d77d8", info={ "error": { "code": -32000, "data": { "data": null, "message": "Nonce too low. Expected nonce to be 6 but got 5. Note that transactions can't be queued when automining." }, "message": "Nonce too low. Expected nonce to be 6 but got 5. Note that transactions can't be queued when automining." } }, code=NONCE_EXPIRED, version=6.16.0) 
[2026-02-15 17:10:03] [INFO]: [Sync] Whitelist: nonce has already been used (transaction="0x02f890827a6905843b9aca008479f545dc82708a945fbdb2315678afecb367f032d93f642f64180aa380a4e43252d700000000000000000000000070997970c51812dc3a010c7d01b50e0d17dc79c8c080a0e2d23e2dd1fa0b427e40984bae13697ab83ce3a86b290b5844157b50a17afbdfa05c6a92a0b5e467a6a12b59f934025af0c5f3b20db6ef435a7ef1575f6d7d77d8", info={ "error": { "code": -32000, "data": { "data": null, "message": "Nonce too low. Expected nonce to be 6 but got 5. Note that transactions can't be queued when automining." }, "message": "Nonce too low. Expected nonce to be 6 but got 5. Note that transactions can't be queued when automining." } }, code=NONCE_EXPIRED, version=6.16.0) 
[2026-02-15 17:10:03] [INFO]: [Issue Tokens] Partition: Sukuk_Asset_3, To: 0x70997970C51812dc3A010C7d01b50e0d17dc79C8, Amount: 10000 
[2026-02-15 17:10:03] [INFO]: [Issue Tokens] Tx Sent: 0xa4218e2c0d344f90392de6410f11fb7be9576a913bd19b621fe9355b4469bcd0 
[2026-02-15 17:10:03] [INFO]: [Issue Tokens] Confirmed. 
[2026-02-15 17:11:11] [INFO]: [Transfer] 5 from 0x70997970C51812dc3A010C7d01b50e0d17dc79C8 to 0x90F79bf6EB2c4f870365E785982E1f101E93b906 (Partition: Sukuk_Asset_3) 
[2026-02-15 17:11:11] [ERROR]: [Transfer] Failed: execution reverted: "Receiver not whitelisted" (action="estimateGas", data="0x08c379a0000000000000000000000000000000000000000000000000000000000000002000000000000000000000000000000000000000000000000000000000000000185265636569766572206e6f742077686974656c69737465640000000000000000", reason="Receiver not whitelisted", transaction={ "data": "0xfd44c1145070a207c511b22c3dcc5d67bd44b81e7ebdfb97f83d8f483a51110f26834f6b00000000000000000000000070997970c51812dc3a010c7d01b50e0d17dc79c800000000000000000000000090f79bf6eb2c4f870365e785982e1f101e93b9060000000000000000000000000000000000000000000000004563918244f40000", "from": "0xf39Fd6e51aad88F6F4ce6aB8827279cffFb92266", "to": "0x5FbDB2315678afecb367f032d93F642f64180aa3" }, invocation=null, revert={ "args": [ "Receiver not whitelisted" ], "name": "Error", "signature": "Error(string)" }, code=CALL_EXCEPTION, version=6.16.0) 
[2026-02-15 17:16:28] [INFO]: [Sync] Checking partition: Sukuk_Asset_1 
[2026-02-15 17:16:28] [INFO]: [Create Partition] Request for: Sukuk_Asset_1 
[2026-02-15 17:16:29] [ERROR]: [Create Partition] Failed: execution reverted: "Partition already exists" (action="estimateGas", data="0x08c379a000000000000000000000000000000000000000000000000000000000000000200000000000000000000000000000000000000000000000000000000000000018506172746974696f6e20616c7265616479206578697374730000000000000000", reason="Partition already exists", transaction={ "data": "0xfe3c70f40000000000000000000000000000000000000000000000000000000000000020000000000000000000000000000000000000000000000000000000000000000d53756b756b5f41737365745f3100000000000000000000000000000000000000", "from": "0xf39Fd6e51aad88F6F4ce6aB8827279cffFb92266", "to": "0x5FbDB2315678afecb367f032d93F642f64180aa3" }, invocation=null, revert={ "args": [ "Partition already exists" ], "name": "Error", "signature": "Error(string)" }, code=CALL_EXCEPTION, version=6.16.0) 
[2026-02-15 17:16:29] [INFO]: [Sync] Partition Sukuk_Asset_1 already exists. 
[2026-02-15 17:16:29] [INFO]: [Sync] Owner balance is 0. Re-issuing 132100 tokens. 
[2026-02-15 17:16:29] [INFO]: [Whitelist] Adding: 0x70997970C51812dc3A010C7d01b50e0d17dc79C8 
[2026-02-15 17:16:29] [INFO]: [Whitelist] Tx Sent: 0xc4f4fb63a9907d09618494e58a9f10a8366cdd872145b65b1d1e1ae01d766902 
[2026-02-15 17:16:29] [INFO]: [Whitelist] Confirmed. 
[2026-02-15 17:16:29] [INFO]: [Issue Tokens] Partition: Sukuk_Asset_1, To: 0x70997970C51812dc3A010C7d01b50e0d17dc79C8, Amount: 132100 
[2026-02-15 17:16:29] [INFO]: [Issue Tokens] Tx Sent: 0xcb83374366b66a4c9dc30e34f82cd307427fe3444ca227f76af2d1a999705a8e 
[2026-02-15 17:16:29] [INFO]: [Issue Tokens] Confirmed. 
[2026-02-15 17:16:30] [INFO]: [Sync] Checking partition: Sukuk_Asset_4 
[2026-02-15 17:16:30] [INFO]: [Create Partition] Request for: Sukuk_Asset_4 
[2026-02-15 17:16:30] [ERROR]: [Create Partition] Failed: execution reverted: "Partition already exists" (action="estimateGas", data="0x08c379a000000000000000000000000000000000000000000000000000000000000000200000000000000000000000000000000000000000000000000000000000000018506172746974696f6e20616c7265616479206578697374730000000000000000", reason="Partition already exists", transaction={ "data": "0xfe3c70f40000000000000000000000000000000000000000000000000000000000000020000000000000000000000000000000000000000000000000000000000000000d53756b756b5f41737365745f3400000000000000000000000000000000000000", "from": "0xf39Fd6e51aad88F6F4ce6aB8827279cffFb92266", "to": "0x5FbDB2315678afecb367f032d93F642f64180aa3" }, invocation=null, revert={ "args": [ "Partition already exists" ], "name": "Error", "signature": "Error(string)" }, code=CALL_EXCEPTION, version=6.16.0) 
[2026-02-15 17:16:30] [INFO]: [Sync] Partition Sukuk_Asset_4 already exists. 
[2026-02-15 17:16:30] [INFO]: [Sync] Owner has balance 303000.0. Skipping issuance. 
[2026-02-15 17:16:30] [INFO]: [Sync] Checking partition: Sukuk_Asset_3 
[2026-02-15 17:16:30] [INFO]: [Create Partition] Request for: Sukuk_Asset_3 
[2026-02-15 17:16:31] [ERROR]: [Create Partition] Failed: execution reverted: "Partition already exists" (action="estimateGas", data="0x08c379a000000000000000000000000000000000000000000000000000000000000000200000000000000000000000000000000000000000000000000000000000000018506172746974696f6e20616c7265616479206578697374730000000000000000", reason="Partition already exists", transaction={ "data": "0xfe3c70f40000000000000000000000000000000000000000000000000000000000000020000000000000000000000000000000000000000000000000000000000000000d53756b756b5f41737365745f3300000000000000000000000000000000000000", "from": "0xf39Fd6e51aad88F6F4ce6aB8827279cffFb92266", "to": "0x5FbDB2315678afecb367f032d93F642f64180aa3" }, invocation=null, revert={ "args": [ "Partition already exists" ], "name": "Error", "signature": "Error(string)" }, code=CALL_EXCEPTION, version=6.16.0) 
[2026-02-15 17:16:31] [INFO]: [Sync] Partition Sukuk_Asset_3 already exists. 
[2026-02-15 17:16:31] [INFO]: [Sync] Owner has balance 10000.0. Skipping issuance. 
[2026-02-15 17:16:32] [INFO]: [Whitelist] Adding: 0x3C44CdDdB6a900fa2b585dd299e03d12FA4293BC 
[2026-02-15 17:16:32] [INFO]: [Whitelist] Tx Sent: 0xcad288c199d0c9e44637d09d97a754ca7473e87c45ba0b9b997a1b49d4430aa8 
[2026-02-15 17:16:32] [INFO]: [Whitelist] Confirmed. 
[2026-02-15 17:16:32] [INFO]: [Whitelist] Adding: 0x70997970C51812dc3A010C7d01b50e0d17dc79C8 
[2026-02-15 17:16:32] [ERROR]: [Whitelist] Failed: nonce has already been used (transaction="0x02f890827a6909843b9aca008460409bb682708a945fbdb2315678afecb367f032d93f642f64180aa380a4e43252d700000000000000000000000070997970c51812dc3a010c7d01b50e0d17dc79c8c080a058f385827b1f7c408188aa173a4c5920ed8b50ab08d773da34ac333944616e34a05a1c8fd4dcadbadc7338164ecf6969e809fbb8f216a76af9115eeb8fefead9af", info={ "error": { "code": -32000, "data": { "data": null, "message": "Nonce too low. Expected nonce to be 10 but got 9. Note that transactions can't be queued when automining." }, "message": "Nonce too low. Expected nonce to be 10 but got 9. Note that transactions can't be queued when automining." } }, code=NONCE_EXPIRED, version=6.16.0) 
[2026-02-15 17:16:32] [INFO]: [Whitelist] Adding: 0x90F79bf6EB2c4f870365E785982E1f101E93b906 
[2026-02-15 17:16:32] [INFO]: [Whitelist] Tx Sent: 0x5a6899d9d63891115b6f2c353905721f1c4adb8f6c66d3513b9810049d1a9eb4 
[2026-02-15 17:16:32] [INFO]: [Whitelist] Confirmed. 
[2026-02-15 17:16:46] [INFO]: [Sync] Checking partition: Sukuk_Asset_1 
[2026-02-15 17:16:46] [INFO]: [Create Partition] Request for: Sukuk_Asset_1 
[2026-02-15 17:16:46] [ERROR]: [Create Partition] Failed: execution reverted: "Partition already exists" (action="estimateGas", data="0x08c379a000000000000000000000000000000000000000000000000000000000000000200000000000000000000000000000000000000000000000000000000000000018506172746974696f6e20616c7265616479206578697374730000000000000000", reason="Partition already exists", transaction={ "data": "0xfe3c70f40000000000000000000000000000000000000000000000000000000000000020000000000000000000000000000000000000000000000000000000000000000d53756b756b5f41737365745f3100000000000000000000000000000000000000", "from": "0xf39Fd6e51aad88F6F4ce6aB8827279cffFb92266", "to": "0x5FbDB2315678afecb367f032d93F642f64180aa3" }, invocation=null, revert={ "args": [ "Partition already exists" ], "name": "Error", "signature": "Error(string)" }, code=CALL_EXCEPTION, version=6.16.0) 
[2026-02-15 17:16:46] [INFO]: [Sync] Partition Sukuk_Asset_1 already exists. 
[2026-02-15 17:16:46] [INFO]: [Sync] Owner has balance 132100.0. Skipping issuance. 
[2026-02-15 17:16:47] [INFO]: [Sync] Checking partition: Sukuk_Asset_4 
[2026-02-15 17:16:47] [INFO]: [Create Partition] Request for: Sukuk_Asset_4 
[2026-02-15 17:16:47] [ERROR]: [Create Partition] Failed: execution reverted: "Partition already exists" (action="estimateGas", data="0x08c379a000000000000000000000000000000000000000000000000000000000000000200000000000000000000000000000000000000000000000000000000000000018506172746974696f6e20616c7265616479206578697374730000000000000000", reason="Partition already exists", transaction={ "data": "0xfe3c70f40000000000000000000000000000000000000000000000000000000000000020000000000000000000000000000000000000000000000000000000000000000d53756b756b5f41737365745f3400000000000000000000000000000000000000", "from": "0xf39Fd6e51aad88F6F4ce6aB8827279cffFb92266", "to": "0x5FbDB2315678afecb367f032d93F642f64180aa3" }, invocation=null, revert={ "args": [ "Partition already exists" ], "name": "Error", "signature": "Error(string)" }, code=CALL_EXCEPTION, version=6.16.0) 
[2026-02-15 17:16:47] [INFO]: [Sync] Partition Sukuk_Asset_4 already exists. 
[2026-02-15 17:16:47] [INFO]: [Sync] Owner has balance 303000.0. Skipping issuance. 
[2026-02-15 17:16:48] [INFO]: [Sync] Checking partition: Sukuk_Asset_3 
[2026-02-15 17:16:48] [INFO]: [Create Partition] Request for: Sukuk_Asset_3 
[2026-02-15 17:16:48] [ERROR]: [Create Partition] Failed: execution reverted: "Partition already exists" (action="estimateGas", data="0x08c379a000000000000000000000000000000000000000000000000000000000000000200000000000000000000000000000000000000000000000000000000000000018506172746974696f6e20616c7265616479206578697374730000000000000000", reason="Partition already exists", transaction={ "data": "0xfe3c70f40000000000000000000000000000000000000000000000000000000000000020000000000000000000000000000000000000000000000000000000000000000d53756b756b5f41737365745f3300000000000000000000000000000000000000", "from": "0xf39Fd6e51aad88F6F4ce6aB8827279cffFb92266", "to": "0x5FbDB2315678afecb367f032d93F642f64180aa3" }, invocation=null, revert={ "args": [ "Partition already exists" ], "name": "Error", "signature": "Error(string)" }, code=CALL_EXCEPTION, version=6.16.0) 
[2026-02-15 17:16:48] [INFO]: [Sync] Partition Sukuk_Asset_3 already exists. 
[2026-02-15 17:16:48] [INFO]: [Sync] Owner has balance 10000.0. Skipping issuance. 
[2026-02-15 17:16:49] [INFO]: [Whitelist] Adding: 0x3C44CdDdB6a900fa2b585dd299e03d12FA4293BC 
[2026-02-15 17:16:50] [INFO]: [Whitelist] Tx Sent: 0xd1be45703b2d82b99473fbb00bc65ad5cb96442da252d6fa9244e6ce728be358 
[2026-02-15 17:16:50] [INFO]: [Whitelist] Confirmed. 
[2026-02-15 17:16:50] [INFO]: [Whitelist] Adding: 0x70997970C51812dc3A010C7d01b50e0d17dc79C8 
[2026-02-15 17:16:50] [ERROR]: [Whitelist] Failed: nonce has already been used (transaction="0x02f890827a690b843b9aca008457b227ee82708a945fbdb2315678afecb367f032d93f642f64180aa380a4e43252d700000000000000000000000070997970c51812dc3a010c7d01b50e0d17dc79c8c001a019d85b7e72286db1c25c513c5167e442bd768d815c3db7ec37dff2f1bf544abfa00903f98c02eeec1c11f744f2ec72e49f94d6d08f5fe45e6671c2353710cef035", info={ "error": { "code": -32000, "data": { "data": null, "message": "Nonce too low. Expected nonce to be 12 but got 11. Note that transactions can't be queued when automining." }, "message": "Nonce too low. Expected nonce to be 12 but got 11. Note that transactions can't be queued when automining." } }, code=NONCE_EXPIRED, version=6.16.0) 
[2026-02-15 17:16:50] [INFO]: [Whitelist] Adding: 0x90F79bf6EB2c4f870365E785982E1f101E93b906 
[2026-02-15 17:16:50] [INFO]: [Whitelist] Tx Sent: 0x049f58f086dff7e1a67026879fde77a6dcf8a9a560a8063c014d959dab1f86aa 
[2026-02-15 17:16:50] [INFO]: [Whitelist] Confirmed. 
[2026-02-15 17:17:49] [INFO]: [Transfer] 5 from 0x70997970C51812dc3A010C7d01b50e0d17dc79C8 to 0x90F79bf6EB2c4f870365E785982E1f101E93b906 (Partition: Sukuk_Asset_3) 
[2026-02-15 17:17:50] [INFO]: [Transfer] Tx Sent: 0x1b3adb33ce87b634dddc37cc1205b9d02985addb35a97ef6a75a0241ee443b75 
[2026-02-15 17:17:50] [INFO]: [Transfer] Confirmed. 
[2026-02-15 17:23:00] [INFO]: [Sync] Checking partition: Sukuk_Asset_1 
[2026-02-15 17:23:00] [INFO]: [Create Partition] Request for: Sukuk_Asset_1 
[2026-02-15 17:23:00] [ERROR]: [Create Partition] Failed: execution reverted: "Partition already exists" (action="estimateGas", data="0x08c379a000000000000000000000000000000000000000000000000000000000000000200000000000000000000000000000000000000000000000000000000000000018506172746974696f6e20616c7265616479206578697374730000000000000000", reason="Partition already exists", transaction={ "data": "0xfe3c70f40000000000000000000000000000000000000000000000000000000000000020000000000000000000000000000000000000000000000000000000000000000d53756b756b5f41737365745f3100000000000000000000000000000000000000", "from": "0xf39Fd6e51aad88F6F4ce6aB8827279cffFb92266", "to": "0x5FbDB2315678afecb367f032d93F642f64180aa3" }, invocation=null, revert={ "args": [ "Partition already exists" ], "name": "Error", "signature": "Error(string)" }, code=CALL_EXCEPTION, version=6.16.0) 
[2026-02-15 17:23:00] [INFO]: [Sync] Partition Sukuk_Asset_1 already exists. 
[2026-02-15 17:23:00] [INFO]: [Sync] Owner has balance 132100.0. Skipping issuance. 
[2026-02-15 17:23:00] [INFO]: [Sync] Checking partition: Sukuk_Asset_4 
[2026-02-15 17:23:00] [INFO]: [Create Partition] Request for: Sukuk_Asset_4 
[2026-02-15 17:23:00] [ERROR]: [Create Partition] Failed: execution reverted: "Partition already exists" (action="estimateGas", data="0x08c379a000000000000000000000000000000000000000000000000000000000000000200000000000000000000000000000000000000000000000000000000000000018506172746974696f6e20616c7265616479206578697374730000000000000000", reason="Partition already exists", transaction={ "data": "0xfe3c70f40000000000000000000000000000000000000000000000000000000000000020000000000000000000000000000000000000000000000000000000000000000d53756b756b5f41737365745f3400000000000000000000000000000000000000", "from": "0xf39Fd6e51aad88F6F4ce6aB8827279cffFb92266", "to": "0x5FbDB2315678afecb367f032d93F642f64180aa3" }, invocation=null, revert={ "args": [ "Partition already exists" ], "name": "Error", "signature": "Error(string)" }, code=CALL_EXCEPTION, version=6.16.0) 
[2026-02-15 17:23:00] [INFO]: [Sync] Partition Sukuk_Asset_4 already exists. 
[2026-02-15 17:23:01] [INFO]: [Sync] Owner has balance 303000.0. Skipping issuance. 
[2026-02-15 17:23:01] [INFO]: [Sync] Checking partition: Sukuk_Asset_3 
[2026-02-15 17:23:01] [INFO]: [Create Partition] Request for: Sukuk_Asset_3 
[2026-02-15 17:23:01] [ERROR]: [Create Partition] Failed: execution reverted: "Partition already exists" (action="estimateGas", data="0x08c379a000000000000000000000000000000000000000000000000000000000000000200000000000000000000000000000000000000000000000000000000000000018506172746974696f6e20616c7265616479206578697374730000000000000000", reason="Partition already exists", transaction={ "data": "0xfe3c70f40000000000000000000000000000000000000000000000000000000000000020000000000000000000000000000000000000000000000000000000000000000d53756b756b5f41737365745f3300000000000000000000000000000000000000", "from": "0xf39Fd6e51aad88F6F4ce6aB8827279cffFb92266", "to": "0x5FbDB2315678afecb367f032d93F642f64180aa3" }, invocation=null, revert={ "args": [ "Partition already exists" ], "name": "Error", "signature": "Error(string)" }, code=CALL_EXCEPTION, version=6.16.0) 
[2026-02-15 17:23:01] [INFO]: [Sync] Partition Sukuk_Asset_3 already exists. 
[2026-02-15 17:23:01] [INFO]: [Sync] Owner has balance 9995.0. Skipping issuance. 
[2026-02-15 17:23:03] [INFO]: [Whitelist] Adding: 0x3C44CdDdB6a900fa2b585dd299e03d12FA4293BC 
[2026-02-15 17:23:03] [INFO]: [Whitelist] Tx Sent: 0x489c96278c51963721f20201c592820b13db7e279851e0db919fa1c5c82a439c 
[2026-02-15 17:23:03] [INFO]: [Whitelist] Confirmed. 
[2026-02-15 17:23:03] [INFO]: [Whitelist] Adding: 0x70997970C51812dc3A010C7d01b50e0d17dc79C8 
[2026-02-15 17:23:03] [ERROR]: [Whitelist] Failed: nonce has already been used (transaction="0x02f890827a690e843b9aca00844e71023e82708a945fbdb2315678afecb367f032d93f642f64180aa380a4e43252d700000000000000000000000070997970c51812dc3a010c7d01b50e0d17dc79c8c001a01355e4364f3892c8359eaa281cc178a1625136d3cdf71fb08ef00b48fd40b36ba042e405f61de056dbdc4ef21e6e0561bce124861a99f9df1394969ebae9afbb95", info={ "error": { "code": -32000, "data": { "data": null, "message": "Nonce too low. Expected nonce to be 15 but got 14. Note that transactions can't be queued when automining." }, "message": "Nonce too low. Expected nonce to be 15 but got 14. Note that transactions can't be queued when automining." } }, code=NONCE_EXPIRED, version=6.16.0) 
[2026-02-15 17:23:03] [INFO]: [Whitelist] Adding: 0x90F79bf6EB2c4f870365E785982E1f101E93b906 
[2026-02-15 17:23:03] [INFO]: [Whitelist] Tx Sent: 0x2a6a35151ba64f8d859a5936bdac923daf5a414349b38538bd0cbfbc47bfb8e3 
[2026-02-15 17:23:03] [INFO]: [Whitelist] Confirmed. 
[2026-02-15 17:27:08] [INFO]: [Transfer] 50 from 0x70997970C51812dc3A010C7d01b50e0d17dc79C8 to 0x90F79bf6EB2c4f870365E785982E1f101E93b906 (Partition: Sukuk_Asset_4) 
[2026-02-15 17:27:08] [INFO]: [Transfer] Tx Sent: 0xc2f442e8b76c87e2a85c2738ba0d1d9f4d68820688da315bcfb2cd25d78675f8 
[2026-02-15 17:27:08] [INFO]: [Transfer] Confirmed. 
[2026-02-15 17:33:48] [INFO]: [Sync] Checking partition: Sukuk_Asset_1 
[2026-02-15 17:33:48] [INFO]: [Create Partition] Request for: Sukuk_Asset_1 
[2026-02-15 17:33:48] [ERROR]: [Create Partition] Failed: execution reverted: "Partition already exists" (action="estimateGas", data="0x08c379a000000000000000000000000000000000000000000000000000000000000000200000000000000000000000000000000000000000000000000000000000000018506172746974696f6e20616c7265616479206578697374730000000000000000", reason="Partition already exists", transaction={ "data": "0xfe3c70f40000000000000000000000000000000000000000000000000000000000000020000000000000000000000000000000000000000000000000000000000000000d53756b756b5f41737365745f3100000000000000000000000000000000000000", "from": "0xf39Fd6e51aad88F6F4ce6aB8827279cffFb92266", "to": "0x5FbDB2315678afecb367f032d93F642f64180aa3" }, invocation=null, revert={ "args": [ "Partition already exists" ], "name": "Error", "signature": "Error(string)" }, code=CALL_EXCEPTION, version=6.16.0) 
[2026-02-15 17:33:48] [INFO]: [Sync] Partition Sukuk_Asset_1 already exists. 
[2026-02-15 17:33:48] [INFO]: [Sync] Owner has balance 132100.0. Skipping issuance. 
[2026-02-15 17:33:49] [INFO]: [Sync] Checking partition: Sukuk_Asset_3 
[2026-02-15 17:33:49] [INFO]: [Create Partition] Request for: Sukuk_Asset_3 
[2026-02-15 17:33:49] [ERROR]: [Create Partition] Failed: execution reverted: "Partition already exists" (action="estimateGas", data="0x08c379a000000000000000000000000000000000000000000000000000000000000000200000000000000000000000000000000000000000000000000000000000000018506172746974696f6e20616c7265616479206578697374730000000000000000", reason="Partition already exists", transaction={ "data": "0xfe3c70f40000000000000000000000000000000000000000000000000000000000000020000000000000000000000000000000000000000000000000000000000000000d53756b756b5f41737365745f3300000000000000000000000000000000000000", "from": "0xf39Fd6e51aad88F6F4ce6aB8827279cffFb92266", "to": "0x5FbDB2315678afecb367f032d93F642f64180aa3" }, invocation=null, revert={ "args": [ "Partition already exists" ], "name": "Error", "signature": "Error(string)" }, code=CALL_EXCEPTION, version=6.16.0) 
[2026-02-15 17:33:49] [INFO]: [Sync] Partition Sukuk_Asset_3 already exists. 
[2026-02-15 17:33:49] [INFO]: [Sync] Owner has balance 9995.0. Skipping issuance. 
[2026-02-15 17:33:50] [INFO]: [Sync] Checking partition: Sukuk_Asset_4 
[2026-02-15 17:33:50] [INFO]: [Create Partition] Request for: Sukuk_Asset_4 
[2026-02-15 17:33:50] [ERROR]: [Create Partition] Failed: execution reverted: "Partition already exists" (action="estimateGas", data="0x08c379a000000000000000000000000000000000000000000000000000000000000000200000000000000000000000000000000000000000000000000000000000000018506172746974696f6e20616c7265616479206578697374730000000000000000", reason="Partition already exists", transaction={ "data": "0xfe3c70f40000000000000000000000000000000000000000000000000000000000000020000000000000000000000000000000000000000000000000000000000000000d53756b756b5f41737365745f3400000000000000000000000000000000000000", "from": "0xf39Fd6e51aad88F6F4ce6aB8827279cffFb92266", "to": "0x5FbDB2315678afecb367f032d93F642f64180aa3" }, invocation=null, revert={ "args": [ "Partition already exists" ], "name": "Error", "signature": "Error(string)" }, code=CALL_EXCEPTION, version=6.16.0) 
[2026-02-15 17:33:50] [INFO]: [Sync] Partition Sukuk_Asset_4 already exists. 
[2026-02-15 17:33:50] [INFO]: [Sync] Owner has balance 302950.0. Skipping issuance. 
[2026-02-15 17:33:51] [INFO]: [Whitelist] Adding: 0x3C44CdDdB6a900fa2b585dd299e03d12FA4293BC 
[2026-02-15 17:33:52] [INFO]: [Whitelist] Tx Sent: 0x9a2e02a26017a01f613610c5ef5ac53e7512762d8653cc22914cc3e27efd6a53 
[2026-02-15 17:33:52] [INFO]: [Whitelist] Confirmed. 
[2026-02-15 17:33:52] [INFO]: [Whitelist] Adding: 0x70997970C51812dc3A010C7d01b50e0d17dc79C8 
[2026-02-15 17:33:52] [ERROR]: [Whitelist] Failed: nonce has already been used (transaction="0x02f890827a6911843b9aca0084483ccd8882708a945fbdb2315678afecb367f032d93f642f64180aa380a4e43252d700000000000000000000000070997970c51812dc3a010c7d01b50e0d17dc79c8c080a0d8d803db5ed613f669096d2b577f6cf364f8a7e6143ad258026b8bf68988ec3ba00e8cbfd19fefc004aa8374baf177e429d21f280095a42bd4bf16005da2c28934", info={ "error": { "code": -32000, "data": { "data": null, "message": "Nonce too low. Expected nonce to be 18 but got 17. Note that transactions can't be queued when automining." }, "message": "Nonce too low. Expected nonce to be 18 but got 17. Note that transactions can't be queued when automining." } }, code=NONCE_EXPIRED, version=6.16.0) 
[2026-02-15 17:33:52] [INFO]: [Whitelist] Adding: 0x90F79bf6EB2c4f870365E785982E1f101E93b906 
[2026-02-15 17:33:52] [INFO]: [Whitelist] Tx Sent: 0x9c35f82132c6b9cf30751d25139c6d4037d04fd2f9aea92eecc13a14deb92999 
[2026-02-15 17:33:52] [INFO]: [Whitelist] Confirmed. 
[2026-02-15 17:37:34] [INFO]: [Sync] Checking partition: Sukuk_Asset_1 
[2026-02-15 17:37:34] [INFO]: [Create Partition] Request for: Sukuk_Asset_1 
[2026-02-15 17:37:34] [ERROR]: [Create Partition] Failed: execution reverted: "Partition already exists" (action="estimateGas", data="0x08c379a000000000000000000000000000000000000000000000000000000000000000200000000000000000000000000000000000000000000000000000000000000018506172746974696f6e20616c7265616479206578697374730000000000000000", reason="Partition already exists", transaction={ "data": "0xfe3c70f40000000000000000000000000000000000000000000000000000000000000020000000000000000000000000000000000000000000000000000000000000000d53756b756b5f41737365745f3100000000000000000000000000000000000000", "from": "0xf39Fd6e51aad88F6F4ce6aB8827279cffFb92266", "to": "0x5FbDB2315678afecb367f032d93F642f64180aa3" }, invocation=null, revert={ "args": [ "Partition already exists" ], "name": "Error", "signature": "Error(string)" }, code=CALL_EXCEPTION, version=6.16.0) 
[2026-02-15 17:37:34] [INFO]: [Sync] Partition Sukuk_Asset_1 already exists. 
[2026-02-15 17:37:34] [INFO]: [Sync] Owner has balance 132100.0. Skipping issuance. 
[2026-02-15 17:37:35] [INFO]: [Sync] Checking partition: Sukuk_Asset_3 
[2026-02-15 17:37:35] [INFO]: [Create Partition] Request for: Sukuk_Asset_3 
[2026-02-15 17:37:35] [ERROR]: [Create Partition] Failed: execution reverted: "Partition already exists" (action="estimateGas", data="0x08c379a000000000000000000000000000000000000000000000000000000000000000200000000000000000000000000000000000000000000000000000000000000018506172746974696f6e20616c7265616479206578697374730000000000000000", reason="Partition already exists", transaction={ "data": "0xfe3c70f40000000000000000000000000000000000000000000000000000000000000020000000000000000000000000000000000000000000000000000000000000000d53756b756b5f41737365745f3300000000000000000000000000000000000000", "from": "0xf39Fd6e51aad88F6F4ce6aB8827279cffFb92266", "to": "0x5FbDB2315678afecb367f032d93F642f64180aa3" }, invocation=null, revert={ "args": [ "Partition already exists" ], "name": "Error", "signature": "Error(string)" }, code=CALL_EXCEPTION, version=6.16.0) 
[2026-02-15 17:37:35] [INFO]: [Sync] Partition Sukuk_Asset_3 already exists. 
[2026-02-15 17:37:35] [INFO]: [Sync] Owner has balance 9995.0. Skipping issuance. 
[2026-02-15 17:37:36] [INFO]: [Sync] Checking partition: Sukuk_Asset_4 
[2026-02-15 17:37:36] [INFO]: [Create Partition] Request for: Sukuk_Asset_4 
[2026-02-15 17:37:36] [ERROR]: [Create Partition] Failed: execution reverted: "Partition already exists" (action="estimateGas", data="0x08c379a000000000000000000000000000000000000000000000000000000000000000200000000000000000000000000000000000000000000000000000000000000018506172746974696f6e20616c7265616479206578697374730000000000000000", reason="Partition already exists", transaction={ "data": "0xfe3c70f40000000000000000000000000000000000000000000000000000000000000020000000000000000000000000000000000000000000000000000000000000000d53756b756b5f41737365745f3400000000000000000000000000000000000000", "from": "0xf39Fd6e51aad88F6F4ce6aB8827279cffFb92266", "to": "0x5FbDB2315678afecb367f032d93F642f64180aa3" }, invocation=null, revert={ "args": [ "Partition already exists" ], "name": "Error", "signature": "Error(string)" }, code=CALL_EXCEPTION, version=6.16.0) 
[2026-02-15 17:37:36] [INFO]: [Sync] Partition Sukuk_Asset_4 already exists. 
[2026-02-15 17:37:36] [INFO]: [Sync] Owner has balance 302950.0. Skipping issuance. 
[2026-02-15 17:37:37] [INFO]: [Whitelist] Adding: 0x3C44CdDdB6a900fa2b585dd299e03d12FA4293BC 
[2026-02-15 17:37:37] [INFO]: [Whitelist] Tx Sent: 0x343b5d92671d22885c9419a7d46858fa3afb39ab07f67a99c62180474da4261f 
[2026-02-15 17:37:37] [INFO]: [Whitelist] Confirmed. 
[2026-02-15 17:37:37] [INFO]: [Whitelist] Adding: 0x70997970C51812dc3A010C7d01b50e0d17dc79C8 
[2026-02-15 17:37:38] [ERROR]: [Whitelist] Failed: nonce has already been used (transaction="0x02f890827a6913843b9aca00844413ace882708a945fbdb2315678afecb367f032d93f642f64180aa380a4e43252d700000000000000000000000070997970c51812dc3a010c7d01b50e0d17dc79c8c080a0c8ea6b948909c0eb07733ceb931bce8b090e076c8866ddd37da0fb025ebc7dcda0453ea95a3517d73fdbcfaeb145f1931d46ac75a0b1a3be90e0a5267211a51143", info={ "error": { "code": -32000, "data": { "data": null, "message": "Nonce too low. Expected nonce to be 20 but got 19. Note that transactions can't be queued when automining." }, "message": "Nonce too low. Expected nonce to be 20 but got 19. Note that transactions can't be queued when automining." } }, code=NONCE_EXPIRED, version=6.16.0) 
[2026-02-15 17:37:38] [INFO]: [Whitelist] Adding: 0x90F79bf6EB2c4f870365E785982E1f101E93b906 
[2026-02-15 17:37:38] [INFO]: [Whitelist] Tx Sent: 0x46d0731f7f35ca287f29c4cc4e4043548b9a3789c3c95dcb17351b4f0f3ba063 
[2026-02-15 17:37:38] [INFO]: [Whitelist] Confirmed. 
[2026-02-15 17:38:55] [INFO]: [Sync] Checking partition: Sukuk_Asset_1 
[2026-02-15 17:38:55] [INFO]: [Create Partition] Request for: Sukuk_Asset_1 
[2026-02-15 17:38:55] [ERROR]: [Create Partition] Failed: execution reverted: "Partition already exists" (action="estimateGas", data="0x08c379a000000000000000000000000000000000000000000000000000000000000000200000000000000000000000000000000000000000000000000000000000000018506172746974696f6e20616c7265616479206578697374730000000000000000", reason="Partition already exists", transaction={ "data": "0xfe3c70f40000000000000000000000000000000000000000000000000000000000000020000000000000000000000000000000000000000000000000000000000000000d53756b756b5f41737365745f3100000000000000000000000000000000000000", "from": "0xf39Fd6e51aad88F6F4ce6aB8827279cffFb92266", "to": "0x5FbDB2315678afecb367f032d93F642f64180aa3" }, invocation=null, revert={ "args": [ "Partition already exists" ], "name": "Error", "signature": "Error(string)" }, code=CALL_EXCEPTION, version=6.16.0) 
[2026-02-15 17:38:55] [INFO]: [Sync] Partition Sukuk_Asset_1 already exists. 
[2026-02-15 17:38:55] [INFO]: [Sync] Owner has balance 132100.0. Skipping issuance. 
[2026-02-15 17:38:56] [INFO]: [Sync] Checking partition: Sukuk_Asset_3 
[2026-02-15 17:38:56] [INFO]: [Create Partition] Request for: Sukuk_Asset_3 
[2026-02-15 17:38:56] [ERROR]: [Create Partition] Failed: execution reverted: "Partition already exists" (action="estimateGas", data="0x08c379a000000000000000000000000000000000000000000000000000000000000000200000000000000000000000000000000000000000000000000000000000000018506172746974696f6e20616c7265616479206578697374730000000000000000", reason="Partition already exists", transaction={ "data": "0xfe3c70f40000000000000000000000000000000000000000000000000000000000000020000000000000000000000000000000000000000000000000000000000000000d53756b756b5f41737365745f3300000000000000000000000000000000000000", "from": "0xf39Fd6e51aad88F6F4ce6aB8827279cffFb92266", "to": "0x5FbDB2315678afecb367f032d93F642f64180aa3" }, invocation=null, revert={ "args": [ "Partition already exists" ], "name": "Error", "signature": "Error(string)" }, code=CALL_EXCEPTION, version=6.16.0) 
[2026-02-15 17:38:56] [INFO]: [Sync] Partition Sukuk_Asset_3 already exists. 
[2026-02-15 17:38:56] [INFO]: [Sync] Owner has balance 9995.0. Skipping issuance. 
[2026-02-15 17:38:57] [INFO]: [Sync] Checking partition: Sukuk_Asset_4 
[2026-02-15 17:38:57] [INFO]: [Create Partition] Request for: Sukuk_Asset_4 
[2026-02-15 17:38:57] [ERROR]: [Create Partition] Failed: execution reverted: "Partition already exists" (action="estimateGas", data="0x08c379a000000000000000000000000000000000000000000000000000000000000000200000000000000000000000000000000000000000000000000000000000000018506172746974696f6e20616c7265616479206578697374730000000000000000", reason="Partition already exists", transaction={ "data": "0xfe3c70f40000000000000000000000000000000000000000000000000000000000000020000000000000000000000000000000000000000000000000000000000000000d53756b756b5f41737365745f3400000000000000000000000000000000000000", "from": "0xf39Fd6e51aad88F6F4ce6aB8827279cffFb92266", "to": "0x5FbDB2315678afecb367f032d93F642f64180aa3" }, invocation=null, revert={ "args": [ "Partition already exists" ], "name": "Error", "signature": "Error(string)" }, code=CALL_EXCEPTION, version=6.16.0) 
[2026-02-15 17:38:57] [INFO]: [Sync] Partition Sukuk_Asset_4 already exists. 
[2026-02-15 17:38:57] [INFO]: [Sync] Owner has balance 302950.0. Skipping issuance. 
[2026-02-15 17:38:59] [INFO]: [Whitelist] Adding: 0x3C44CdDdB6a900fa2b585dd299e03d12FA4293BC 
[2026-02-15 17:38:59] [INFO]: [Whitelist] Tx Sent: 0xbc2a0bede1e89369f8e47f04eae8e438c73c535bcce30a0d9c65681601d4d46e 
[2026-02-15 17:38:59] [INFO]: [Whitelist] Confirmed. 
[2026-02-15 17:38:59] [INFO]: [Whitelist] Adding: 0x70997970C51812dc3A010C7d01b50e0d17dc79C8 
[2026-02-15 17:38:59] [ERROR]: [Whitelist] Failed: nonce has already been used (transaction="0x02f890827a6915843b9aca008443050b3e82708a945fbdb2315678afecb367f032d93f642f64180aa380a4e43252d700000000000000000000000070997970c51812dc3a010c7d01b50e0d17dc79c8c001a0fddda5becdf3a5c4cce14023f302cb6664d67b3c8671400460505298f58dee0aa00babcf099c855c665edcd53c8c64be54839fcc3ff2c172ebfd352dd4d4faf21e", info={ "error": { "code": -32000, "data": { "data": null, "message": "Nonce too low. Expected nonce to be 22 but got 21. Note that transactions can't be queued when automining." }, "message": "Nonce too low. Expected nonce to be 22 but got 21. Note that transactions can't be queued when automining." } }, code=NONCE_EXPIRED, version=6.16.0) 
[2026-02-15 17:38:59] [INFO]: [Whitelist] Adding: 0x90F79bf6EB2c4f870365E785982E1f101E93b906 
[2026-02-15 17:38:59] [INFO]: [Whitelist] Tx Sent: 0x450730db0f8316a330eb659f26c7f4ffcb15cc04589485f2b6371f4f4dc9f8c1 
[2026-02-15 17:38:59] [INFO]: [Whitelist] Confirmed. 
[2026-02-15 17:44:52] [INFO]: [Create Partition] Request for: Sukuk_Asset_8 
[2026-02-15 17:44:53] [INFO]: [Create Partition] Tx Sent: 0x1f86447fa882d5af69cfd636358cc2bef103235e87804ba9a686ded4f3971f98 
[2026-02-15 17:44:53] [INFO]: [Create Partition] Confirmed: Sukuk_Asset_8 
[2026-02-15 17:44:53] [INFO]: [Issue Tokens] Partition: Sukuk_Asset_8, To: 0x70997970C51812dc3A010C7d01b50e0d17dc79C8, Amount: 200000 
[2026-02-15 17:44:53] [ERROR]: [Issue Tokens] Failed: nonce has already been used (transaction="0x02f8d2827a6917843b9aca00844148dff483012ad0945fbdb2315678afecb367f032d93f642f64180aa380b86435d680184317d03e89fded2826e93e81c58de4a8b889591cc932d5163d6ec1c140dd54c600000000000000000000000070997970c51812dc3a010c7d01b50e0d17dc79c8000000000000000000000000000000000000000000002a5a058fc295ed000000c080a04ebb48b1e10919cc66ba1c3713bd2e15c89b0f4f09c84d9953d7d41d269db267a03e934e2b31191d11da946846f9f50c92019464f3174a7358cc36488809ef4035", info={ "error": { "code": -32000, "data": { "data": null, "message": "Nonce too low. Expected nonce to be 24 but got 23. Note that transactions can't be queued when automining." }, "message": "Nonce too low. Expected nonce to be 24 but got 23. Note that transactions can't be queued when automining." } }, code=NONCE_EXPIRED, version=6.16.0) 
[2026-02-15 17:46:20] [INFO]: [Sync] Checking partition: Sukuk_Asset_1 
[2026-02-15 17:46:20] [INFO]: [Create Partition] Request for: Sukuk_Asset_1 
[2026-02-15 17:46:20] [ERROR]: [Create Partition] Failed: execution reverted: "Partition already exists" (action="estimateGas", data="0x08c379a000000000000000000000000000000000000000000000000000000000000000200000000000000000000000000000000000000000000000000000000000000018506172746974696f6e20616c7265616479206578697374730000000000000000", reason="Partition already exists", transaction={ "data": "0xfe3c70f40000000000000000000000000000000000000000000000000000000000000020000000000000000000000000000000000000000000000000000000000000000d53756b756b5f41737365745f3100000000000000000000000000000000000000", "from": "0xf39Fd6e51aad88F6F4ce6aB8827279cffFb92266", "to": "0x5FbDB2315678afecb367f032d93F642f64180aa3" }, invocation=null, revert={ "args": [ "Partition already exists" ], "name": "Error", "signature": "Error(string)" }, code=CALL_EXCEPTION, version=6.16.0) 
[2026-02-15 17:46:20] [INFO]: [Sync] Partition Sukuk_Asset_1 already exists. 
[2026-02-15 17:46:20] [INFO]: [Sync] Owner has balance 132100.0. Skipping issuance. 
[2026-02-15 17:46:22] [INFO]: [Sync] Checking partition: Sukuk_Asset_3 
[2026-02-15 17:46:22] [INFO]: [Create Partition] Request for: Sukuk_Asset_3 
[2026-02-15 17:46:22] [ERROR]: [Create Partition] Failed: execution reverted: "Partition already exists" (action="estimateGas", data="0x08c379a000000000000000000000000000000000000000000000000000000000000000200000000000000000000000000000000000000000000000000000000000000018506172746974696f6e20616c7265616479206578697374730000000000000000", reason="Partition already exists", transaction={ "data": "0xfe3c70f40000000000000000000000000000000000000000000000000000000000000020000000000000000000000000000000000000000000000000000000000000000d53756b756b5f41737365745f3300000000000000000000000000000000000000", "from": "0xf39Fd6e51aad88F6F4ce6aB8827279cffFb92266", "to": "0x5FbDB2315678afecb367f032d93F642f64180aa3" }, invocation=null, revert={ "args": [ "Partition already exists" ], "name": "Error", "signature": "Error(string)" }, code=CALL_EXCEPTION, version=6.16.0) 
[2026-02-15 17:46:22] [INFO]: [Sync] Partition Sukuk_Asset_3 already exists. 
[2026-02-15 17:46:22] [INFO]: [Sync] Owner has balance 9995.0. Skipping issuance. 
[2026-02-15 17:46:23] [INFO]: [Sync] Checking partition: Sukuk_Asset_4 
[2026-02-15 17:46:23] [INFO]: [Create Partition] Request for: Sukuk_Asset_4 
[2026-02-15 17:46:23] [ERROR]: [Create Partition] Failed: execution reverted: "Partition already exists" (action="estimateGas", data="0x08c379a000000000000000000000000000000000000000000000000000000000000000200000000000000000000000000000000000000000000000000000000000000018506172746974696f6e20616c7265616479206578697374730000000000000000", reason="Partition already exists", transaction={ "data": "0xfe3c70f40000000000000000000000000000000000000000000000000000000000000020000000000000000000000000000000000000000000000000000000000000000d53756b756b5f41737365745f3400000000000000000000000000000000000000", "from": "0xf39Fd6e51aad88F6F4ce6aB8827279cffFb92266", "to": "0x5FbDB2315678afecb367f032d93F642f64180aa3" }, invocation=null, revert={ "args": [ "Partition already exists" ], "name": "Error", "signature": "Error(string)" }, code=CALL_EXCEPTION, version=6.16.0) 
[2026-02-15 17:46:23] [INFO]: [Sync] Partition Sukuk_Asset_4 already exists. 
[2026-02-15 17:46:23] [INFO]: [Sync] Owner has balance 302950.0. Skipping issuance. 
[2026-02-15 17:46:24] [INFO]: [Sync] Checking partition: Sukuk_Asset_8 
[2026-02-15 17:46:24] [INFO]: [Create Partition] Request for: Sukuk_Asset_8 
[2026-02-15 17:46:24] [ERROR]: [Create Partition] Failed: execution reverted: "Partition already exists" (action="estimateGas", data="0x08c379a000000000000000000000000000000000000000000000000000000000000000200000000000000000000000000000000000000000000000000000000000000018506172746974696f6e20616c7265616479206578697374730000000000000000", reason="Partition already exists", transaction={ "data": "0xfe3c70f40000000000000000000000000000000000000000000000000000000000000020000000000000000000000000000000000000000000000000000000000000000d53756b756b5f41737365745f3800000000000000000000000000000000000000", "from": "0xf39Fd6e51aad88F6F4ce6aB8827279cffFb92266", "to": "0x5FbDB2315678afecb367f032d93F642f64180aa3" }, invocation=null, revert={ "args": [ "Partition already exists" ], "name": "Error", "signature": "Error(string)" }, code=CALL_EXCEPTION, version=6.16.0) 
[2026-02-15 17:46:24] [INFO]: [Sync] Partition Sukuk_Asset_8 already exists. 
[2026-02-15 17:46:25] [INFO]: [Sync] Owner balance is 0. Re-issuing 200000 tokens. 
[2026-02-15 17:46:25] [INFO]: [Whitelist] Adding: 0x70997970C51812dc3A010C7d01b50e0d17dc79C8 
[2026-02-15 17:46:25] [INFO]: [Whitelist] Tx Sent: 0xfc514e3bfce4189c9df19c1c611558b40c2e3fc2ca0aac8152bf028e677aef3e 
[2026-02-15 17:46:25] [INFO]: [Whitelist] Confirmed. 
[2026-02-15 17:46:25] [INFO]: [Issue Tokens] Partition: Sukuk_Asset_8, To: 0x70997970C51812dc3A010C7d01b50e0d17dc79C8, Amount: 200000 
[2026-02-15 17:46:25] [INFO]: [Issue Tokens] Tx Sent: 0x0c2447782b0115384f1d20e6d61dcb2c0a531f07ff774295fe9d07e7c225f997 
[2026-02-15 17:46:25] [INFO]: [Issue Tokens] Confirmed. 
[2026-02-15 17:46:27] [INFO]: [Whitelist] Adding: 0x3C44CdDdB6a900fa2b585dd299e03d12FA4293BC 
[2026-02-15 17:46:27] [INFO]: [Whitelist] Tx Sent: 0xa79c01ca7e346a3d9ae4b9534f9da74768d739f63a6a63a99e0633b448dffcf6 
[2026-02-15 17:46:27] [INFO]: [Whitelist] Confirmed. 
[2026-02-15 17:46:27] [INFO]: [Whitelist] Adding: 0x70997970C51812dc3A010C7d01b50e0d17dc79C8 
[2026-02-15 17:46:28] [INFO]: [Whitelist] Tx Sent: 0xeae2d3038da37124929122f6f470ce768102b89396d258d2b2e382cbf7f2e11a 
[2026-02-15 17:46:28] [INFO]: [Whitelist] Confirmed. 
[2026-02-15 17:46:28] [INFO]: [Whitelist] Adding: 0x90F79bf6EB2c4f870365E785982E1f101E93b906 
[2026-02-15 17:46:28] [INFO]: [Whitelist] Tx Sent: 0xadc52fed1d1204f1644a7e505773966cacc73d68fa28d9c50f5863735274f445 
[2026-02-15 17:46:28] [INFO]: [Whitelist] Confirmed. 
[2026-02-15 17:46:51] [INFO]: [Create Partition] Request for: Sukuk_Asset_8 
[2026-02-15 17:46:51] [ERROR]: [Create Partition] Failed: execution reverted: "Partition already exists" (action="estimateGas", data="0x08c379a000000000000000000000000000000000000000000000000000000000000000200000000000000000000000000000000000000000000000000000000000000018506172746974696f6e20616c7265616479206578697374730000000000000000", reason="Partition already exists", transaction={ "data": "0xfe3c70f40000000000000000000000000000000000000000000000000000000000000020000000000000000000000000000000000000000000000000000000000000000d53756b756b5f41737365745f3800000000000000000000000000000000000000", "from": "0xf39Fd6e51aad88F6F4ce6aB8827279cffFb92266", "to": "0x5FbDB2315678afecb367f032d93F642f64180aa3" }, invocation=null, revert={ "args": [ "Partition already exists" ], "name": "Error", "signature": "Error(string)" }, code=CALL_EXCEPTION, version=6.16.0) 
[2026-02-15 17:46:51] [INFO]: [Issue Tokens] Partition: Sukuk_Asset_8, To: 0x70997970C51812dc3A010C7d01b50e0d17dc79C8, Amount: 200000 
[2026-02-15 17:46:51] [INFO]: [Issue Tokens] Tx Sent: 0x3adcc93ec9b62e6475bfb74516d22fb7a7d69e2e67206fec90ca4086470624b5 
[2026-02-15 17:46:51] [INFO]: [Issue Tokens] Confirmed. 
[2026-02-15 17:49:12] [INFO]: [Transfer] 50000 from 0x70997970C51812dc3A010C7d01b50e0d17dc79C8 to 0x90F79bf6EB2c4f870365E785982E1f101E93b906 (Partition: Sukuk_Asset_8) 
[2026-02-15 17:49:12] [INFO]: [Transfer] Tx Sent: 0x15f9a49adfdf3efd4399c057e870273b3e78400852b8bc21c2fb1c6b50d941d8 
[2026-02-15 17:49:12] [INFO]: [Transfer] Confirmed. 
[2026-02-15 17:50:18] [INFO]: [Transfer] 4000 from 0x70997970C51812dc3A010C7d01b50e0d17dc79C8 to 0x90F79bf6EB2c4f870365E785982E1f101E93b906 (Partition: Sukuk_Asset_3) 
[2026-02-15 17:50:18] [INFO]: [Transfer] Tx Sent: 0x358fc74bdd4f1aa205ef8fbe77b098728f653bdad9c0b07429cc4fae6cf3a701 
[2026-02-15 17:50:18] [INFO]: [Transfer] Confirmed. 
[2026-02-15 17:50:49] [INFO]: [Transfer] 10000 from 0x70997970C51812dc3A010C7d01b50e0d17dc79C8 to 0x90F79bf6EB2c4f870365E785982E1f101E93b906 (Partition: Sukuk_Asset_4) 
[2026-02-15 17:50:49] [INFO]: [Transfer] Tx Sent: 0x3ce07a11470c66d8c9db704235295cc8cd3ad27782968c16bd88eac651abaf8a 
[2026-02-15 17:50:49] [INFO]: [Transfer] Confirmed. 
